{
  "contractName": "SolnSquareVerifier",
  "abi": [
    {
      "inputs": [
        {
          "internalType": "address",
          "name": "verifierAddress",
          "type": "address"
        },
        {
          "internalType": "string",
          "name": "name",
          "type": "string"
        },
        {
          "internalType": "string",
          "name": "symbol",
          "type": "string"
        }
      ],
      "stateMutability": "nonpayable",
      "type": "constructor"
    },
    {
      "anonymous": false,
      "inputs": [
        {
          "indexed": true,
          "internalType": "address",
          "name": "owner",
          "type": "address"
        },
        {
          "indexed": true,
          "internalType": "address",
          "name": "approved",
          "type": "address"
        },
        {
          "indexed": true,
          "internalType": "uint256",
          "name": "tokenId",
          "type": "uint256"
        }
      ],
      "name": "Approval",
      "type": "event"
    },
    {
      "anonymous": false,
      "inputs": [
        {
          "indexed": true,
          "internalType": "address",
          "name": "owner",
          "type": "address"
        },
        {
          "indexed": true,
          "internalType": "address",
          "name": "operator",
          "type": "address"
        },
        {
          "indexed": false,
          "internalType": "bool",
          "name": "approved",
          "type": "bool"
        }
      ],
      "name": "ApprovalForAll",
      "type": "event"
    },
    {
      "anonymous": false,
      "inputs": [
        {
          "indexed": false,
          "internalType": "address",
          "name": "owner",
          "type": "address"
        }
      ],
      "name": "OwnerTransfer",
      "type": "event"
    },
    {
      "anonymous": false,
      "inputs": [
        {
          "indexed": false,
          "internalType": "address",
          "name": "sender",
          "type": "address"
        }
      ],
      "name": "Paused",
      "type": "event"
    },
    {
      "anonymous": false,
      "inputs": [
        {
          "indexed": false,
          "internalType": "bytes32",
          "name": "solutionHash",
          "type": "bytes32"
        }
      ],
      "name": "SolutionAdded",
      "type": "event"
    },
    {
      "anonymous": false,
      "inputs": [
        {
          "indexed": true,
          "internalType": "address",
          "name": "from",
          "type": "address"
        },
        {
          "indexed": true,
          "internalType": "address",
          "name": "to",
          "type": "address"
        },
        {
          "indexed": true,
          "internalType": "uint256",
          "name": "tokenId",
          "type": "uint256"
        }
      ],
      "name": "Transfer",
      "type": "event"
    },
    {
      "anonymous": false,
      "inputs": [
        {
          "indexed": false,
          "internalType": "address",
          "name": "sender",
          "type": "address"
        }
      ],
      "name": "Unpaused",
      "type": "event"
    },
    {
      "inputs": [
        {
          "internalType": "bytes32",
          "name": "_myid",
          "type": "bytes32"
        },
        {
          "internalType": "string",
          "name": "_result",
          "type": "string"
        }
      ],
      "name": "__callback",
      "outputs": [],
      "stateMutability": "nonpayable",
      "type": "function"
    },
    {
      "inputs": [
        {
          "internalType": "bytes32",
          "name": "_myid",
          "type": "bytes32"
        },
        {
          "internalType": "string",
          "name": "_result",
          "type": "string"
        },
        {
          "internalType": "bytes",
          "name": "_proof",
          "type": "bytes"
        }
      ],
      "name": "__callback",
      "outputs": [],
      "stateMutability": "nonpayable",
      "type": "function"
    },
    {
      "inputs": [
        {
          "internalType": "address",
          "name": "to",
          "type": "address"
        },
        {
          "internalType": "uint256",
          "name": "tokenId",
          "type": "uint256"
        }
      ],
      "name": "approve",
      "outputs": [],
      "stateMutability": "nonpayable",
      "type": "function"
    },
    {
      "inputs": [
        {
          "internalType": "address",
          "name": "owner",
          "type": "address"
        }
      ],
      "name": "balanceOf",
      "outputs": [
        {
          "internalType": "uint256",
          "name": "",
          "type": "uint256"
        }
      ],
      "stateMutability": "view",
      "type": "function",
      "constant": true
    },
    {
      "inputs": [],
      "name": "baseTokenURI",
      "outputs": [
        {
          "internalType": "string",
          "name": "",
          "type": "string"
        }
      ],
      "stateMutability": "view",
      "type": "function",
      "constant": true
    },
    {
      "inputs": [
        {
          "internalType": "uint256",
          "name": "tokenId",
          "type": "uint256"
        }
      ],
      "name": "getApproved",
      "outputs": [
        {
          "internalType": "address",
          "name": "",
          "type": "address"
        }
      ],
      "stateMutability": "view",
      "type": "function",
      "constant": true
    },
    {
      "inputs": [
        {
          "internalType": "address",
          "name": "owner",
          "type": "address"
        },
        {
          "internalType": "address",
          "name": "operator",
          "type": "address"
        }
      ],
      "name": "isApprovedForAll",
      "outputs": [
        {
          "internalType": "bool",
          "name": "",
          "type": "bool"
        }
      ],
      "stateMutability": "view",
      "type": "function",
      "constant": true
    },
    {
      "inputs": [
        {
          "internalType": "address",
          "name": "to",
          "type": "address"
        },
        {
          "internalType": "uint256",
          "name": "tokenId",
          "type": "uint256"
        }
      ],
      "name": "mint",
      "outputs": [
        {
          "internalType": "bool",
          "name": "",
          "type": "bool"
        }
      ],
      "stateMutability": "nonpayable",
      "type": "function"
    },
    {
      "inputs": [],
      "name": "name",
      "outputs": [
        {
          "internalType": "string",
          "name": "",
          "type": "string"
        }
      ],
      "stateMutability": "view",
      "type": "function",
      "constant": true
    },
    {
      "inputs": [],
      "name": "owner",
      "outputs": [
        {
          "internalType": "address",
          "name": "",
          "type": "address"
        }
      ],
      "stateMutability": "view",
      "type": "function",
      "constant": true
    },
    {
      "inputs": [
        {
          "internalType": "uint256",
          "name": "tokenId",
          "type": "uint256"
        }
      ],
      "name": "ownerOf",
      "outputs": [
        {
          "internalType": "address",
          "name": "",
          "type": "address"
        }
      ],
      "stateMutability": "view",
      "type": "function",
      "constant": true
    },
    {
      "inputs": [
        {
          "internalType": "address",
          "name": "from",
          "type": "address"
        },
        {
          "internalType": "address",
          "name": "to",
          "type": "address"
        },
        {
          "internalType": "uint256",
          "name": "tokenId",
          "type": "uint256"
        }
      ],
      "name": "safeTransferFrom",
      "outputs": [],
      "stateMutability": "nonpayable",
      "type": "function"
    },
    {
      "inputs": [
        {
          "internalType": "address",
          "name": "from",
          "type": "address"
        },
        {
          "internalType": "address",
          "name": "to",
          "type": "address"
        },
        {
          "internalType": "uint256",
          "name": "tokenId",
          "type": "uint256"
        },
        {
          "internalType": "bytes",
          "name": "_data",
          "type": "bytes"
        }
      ],
      "name": "safeTransferFrom",
      "outputs": [],
      "stateMutability": "nonpayable",
      "type": "function"
    },
    {
      "inputs": [
        {
          "internalType": "address",
          "name": "to",
          "type": "address"
        },
        {
          "internalType": "bool",
          "name": "approved",
          "type": "bool"
        }
      ],
      "name": "setApprovalForAll",
      "outputs": [],
      "stateMutability": "nonpayable",
      "type": "function"
    },
    {
      "inputs": [
        {
          "internalType": "bool",
          "name": "isPaused",
          "type": "bool"
        }
      ],
      "name": "setPause",
      "outputs": [],
      "stateMutability": "nonpayable",
      "type": "function"
    },
    {
      "inputs": [
        {
          "internalType": "bytes4",
          "name": "interfaceId",
          "type": "bytes4"
        }
      ],
      "name": "supportsInterface",
      "outputs": [
        {
          "internalType": "bool",
          "name": "",
          "type": "bool"
        }
      ],
      "stateMutability": "view",
      "type": "function",
      "constant": true
    },
    {
      "inputs": [],
      "name": "symbol",
      "outputs": [
        {
          "internalType": "string",
          "name": "",
          "type": "string"
        }
      ],
      "stateMutability": "view",
      "type": "function",
      "constant": true
    },
    {
      "inputs": [
        {
          "internalType": "uint256",
          "name": "index",
          "type": "uint256"
        }
      ],
      "name": "tokenByIndex",
      "outputs": [
        {
          "internalType": "uint256",
          "name": "",
          "type": "uint256"
        }
      ],
      "stateMutability": "view",
      "type": "function",
      "constant": true
    },
    {
      "inputs": [
        {
          "internalType": "address",
          "name": "owner",
          "type": "address"
        },
        {
          "internalType": "uint256",
          "name": "index",
          "type": "uint256"
        }
      ],
      "name": "tokenOfOwnerByIndex",
      "outputs": [
        {
          "internalType": "uint256",
          "name": "",
          "type": "uint256"
        }
      ],
      "stateMutability": "view",
      "type": "function",
      "constant": true
    },
    {
      "inputs": [
        {
          "internalType": "uint256",
          "name": "tokenId",
          "type": "uint256"
        }
      ],
      "name": "tokenURI",
      "outputs": [
        {
          "internalType": "string",
          "name": "",
          "type": "string"
        }
      ],
      "stateMutability": "view",
      "type": "function",
      "constant": true
    },
    {
      "inputs": [],
      "name": "totalSupply",
      "outputs": [
        {
          "internalType": "uint256",
          "name": "",
          "type": "uint256"
        }
      ],
      "stateMutability": "view",
      "type": "function",
      "constant": true
    },
    {
      "inputs": [
        {
          "internalType": "address",
          "name": "from",
          "type": "address"
        },
        {
          "internalType": "address",
          "name": "to",
          "type": "address"
        },
        {
          "internalType": "uint256",
          "name": "tokenId",
          "type": "uint256"
        }
      ],
      "name": "transferFrom",
      "outputs": [],
      "stateMutability": "nonpayable",
      "type": "function"
    },
    {
      "inputs": [
        {
          "internalType": "address",
          "name": "newOwner",
          "type": "address"
        }
      ],
      "name": "transferOwnership",
      "outputs": [],
      "stateMutability": "nonpayable",
      "type": "function"
    },
    {
      "inputs": [
        {
          "components": [
            {
              "components": [
                {
                  "internalType": "uint256",
                  "name": "X",
                  "type": "uint256"
                },
                {
                  "internalType": "uint256",
                  "name": "Y",
                  "type": "uint256"
                }
              ],
              "internalType": "struct ISquareVerifier.G1Point",
              "name": "a",
              "type": "tuple"
            },
            {
              "components": [
                {
                  "internalType": "uint256[2]",
                  "name": "X",
                  "type": "uint256[2]"
                },
                {
                  "internalType": "uint256[2]",
                  "name": "Y",
                  "type": "uint256[2]"
                }
              ],
              "internalType": "struct ISquareVerifier.G2Point",
              "name": "b",
              "type": "tuple"
            },
            {
              "components": [
                {
                  "internalType": "uint256",
                  "name": "X",
                  "type": "uint256"
                },
                {
                  "internalType": "uint256",
                  "name": "Y",
                  "type": "uint256"
                }
              ],
              "internalType": "struct ISquareVerifier.G1Point",
              "name": "c",
              "type": "tuple"
            }
          ],
          "internalType": "struct ISquareVerifier.Proof",
          "name": "proof",
          "type": "tuple"
        },
        {
          "internalType": "uint256[2]",
          "name": "inputs",
          "type": "uint256[2]"
        },
        {
          "internalType": "address",
          "name": "to",
          "type": "address"
        },
        {
          "internalType": "uint256",
          "name": "tokenId",
          "type": "uint256"
        }
      ],
      "name": "verifiedMint",
      "outputs": [
        {
          "internalType": "bool",
          "name": "",
          "type": "bool"
        }
      ],
      "stateMutability": "nonpayable",
      "type": "function"
    }
  ],
  "bytecode": "0x60806040523480156200001157600080fd5b5060405162003f3c38038062003f3c8339818101604052810190620000379190620003e9565b818181816040518060600160405280603f815260200162003efd603f913933806000806101000a81548173ffffffffffffffffffffffffffffffffffffffff021916908373ffffffffffffffffffffffffffffffffffffffff1602179055507fcef55b6688c0d2198b4841b7c6a8247f60385b4b5ce83e22506fb3258036379b60008054906101000a900473ffffffffffffffffffffffffffffffffffffffff16604051620000e7919062000494565b60405180910390a15060008060146101000a81548160ff021916908315150217905550620001226301ffc9a760e01b6200020460201b60201c565b6200013a6380ac58cd60e01b6200020460201b60201c565b6200015263780e9d6360e01b6200020460201b60201c565b82600f90805190602001906200016a929190620002a4565b50816010908051906020019062000183929190620002a4565b5080601190805190602001906200019c929190620002a4565b50620001b5635b5e139f60e01b6200020460201b60201c565b505050505082601360006101000a81548173ffffffffffffffffffffffffffffffffffffffff021916908373ffffffffffffffffffffffffffffffffffffffff16021790555050505062000683565b63ffffffff60e01b817bffffffffffffffffffffffffffffffffffffffffffffffffffffffff191614156200023857600080fd5b6001806000837bffffffffffffffffffffffffffffffffffffffffffffffffffffffff19167bffffffffffffffffffffffffffffffffffffffffffffffffffffffff1916815260200190815260200160002060006101000a81548160ff02191690831515021790555050565b828054620002b2906200057a565b90600052602060002090601f016020900481019282620002d6576000855562000322565b82601f10620002f157805160ff191683800117855562000322565b8280016001018555821562000322579182015b828111156200032157825182559160200191906001019062000304565b5b50905062000331919062000335565b5090565b5b808211156200035057600081600090555060010162000336565b5090565b60006200036b6200036584620004da565b620004b1565b9050828152602081018484840111156200038a576200038962000649565b5b6200039784828562000544565b509392505050565b600081519050620003b08162000669565b92915050565b600082601f830112620003ce57620003cd62000644565b5b8151620003e084826020860162000354565b91505092915050565b60008060006060848603121562000405576200040462000653565b5b600062000415868287016200039f565b935050602084015167ffffffffffffffff8111156200043957620004386200064e565b5b6200044786828701620003b6565b925050604084015167ffffffffffffffff8111156200046b576200046a6200064e565b5b6200047986828701620003b6565b9150509250925092565b6200048e8162000510565b82525050565b6000602082019050620004ab600083018462000483565b92915050565b6000620004bd620004d0565b9050620004cb8282620005b0565b919050565b6000604051905090565b600067ffffffffffffffff821115620004f857620004f762000615565b5b620005038262000658565b9050602081019050919050565b60006200051d8262000524565b9050919050565b600073ffffffffffffffffffffffffffffffffffffffff82169050919050565b60005b838110156200056457808201518184015260208101905062000547565b8381111562000574576000848401525b50505050565b600060028204905060018216806200059357607f821691505b60208210811415620005aa57620005a9620005e6565b5b50919050565b620005bb8262000658565b810181811067ffffffffffffffff82111715620005dd57620005dc62000615565b5b80604052505050565b7f4e487b7100000000000000000000000000000000000000000000000000000000600052602260045260246000fd5b7f4e487b7100000000000000000000000000000000000000000000000000000000600052604160045260246000fd5b600080fd5b600080fd5b600080fd5b600080fd5b6000601f19601f8301169050919050565b620006748162000510565b81146200068057600080fd5b50565b61386a80620006936000396000f3fe608060405234801561001057600080fd5b50600436106101585760003560e01c80634f6ccce7116100c3578063b88d4fde1161007c578063b88d4fde146103fd578063bedb86fb14610419578063c87b56dd14610435578063d547cfb714610465578063e985e9c514610483578063f2fde38b146104b357610158565b80634f6ccce7146103155780636352211e1461034557806370a08231146103755780638da5cb5b146103a557806395d89b41146103c3578063a22cb465146103e157610158565b806323b872dd1161011557806323b872dd1461024557806327dc297e146102615780632f745c591461027d57806338bbfa50146102ad57806340c10f19146102c957806342842e0e146102f957610158565b806301ffc9a71461015d5780630389a6c11461018d57806306fdde03146101bd578063081812fc146101db578063095ea7b31461020b57806318160ddd14610227575b600080fd5b610177600480360381019061017291906129ca565b6104cf565b6040516101849190612fbb565b60405180910390f35b6101a760048036038101906101a29190612a24565b610537565b6040516101b49190612fbb565b60405180910390f35b6101c561061b565b6040516101d29190612ff1565b60405180910390f35b6101f560048036038101906101f09190612a8f565b6106ad565b6040516102029190612f54565b60405180910390f35b61022560048036038101906102209190612849565b6106ea565b005b61022f610873565b60405161023c919061317e565b60405180910390f35b61025f600480360381019061025a9190612733565b610880565b005b61027b600480360381019061027691906128e3565b6108a3565b005b61029760048036038101906102929190612849565b6108ff565b6040516102a4919061317e565b60405180910390f35b6102c760048036038101906102c2919061293f565b610979565b005b6102e360048036038101906102de9190612849565b61099c565b6040516102f09190612fbb565b60405180910390f35b610313600480360381019061030e9190612733565b610a4a565b005b61032f600480360381019061032a9190612a8f565b610a6a565b60405161033c919061317e565b60405180910390f35b61035f600480360381019061035a9190612a8f565b610aa5565b60405161036c9190612f54565b60405180910390f35b61038f600480360381019061038a91906126c6565b610ae2565b60405161039c919061317e565b60405180910390f35b6103ad610b32565b6040516103ba9190612f54565b60405180910390f35b6103cb610b5b565b6040516103d89190612ff1565b60405180910390f35b6103fb60048036038101906103f69190612809565b610bed565b005b61041760048036038101906104129190612786565b610d23565b005b610433600480360381019061042e9190612889565b610d49565b005b61044f600480360381019061044a9190612a8f565b610df4565b60405161045c9190612ff1565b60405180910390f35b61046d610eab565b60405161047a9190612ff1565b60405180910390f35b61049d600480360381019061049891906126f3565b610f3d565b6040516104aa9190612fbb565b60405180910390f35b6104cd60048036038101906104c891906126c6565b610fd1565b005b600060016000837bffffffffffffffffffffffffffffffffffffffffffffffffffffffff19167bffffffffffffffffffffffffffffffffffffffffffffffffffffffff1916815260200190815260200160002060009054906101000a900460ff169050919050565b60008061054486866110f9565b9050600015156014600083815260200190815260200160002060009054906101000a900460ff161515146105ad576040517f08c379a00000000000000000000000000000000000000000000000000000000081526004016105a4906130b3565b60405180910390fd5b6105b681611166565b600115156105c487876111cc565b151514610606576040517f08c379a00000000000000000000000000000000000000000000000000000000081526004016105fd906130f3565b60405180910390fd5b610610848461099c565b915050949350505050565b6060600f805461062a9061340b565b80601f01602080910402602001604051908101604052809291908181526020018280546106569061340b565b80156106a35780601f10610678576101008083540402835291602001916106a3565b820191906000526020600020905b81548152906001019060200180831161068657829003601f168201915b5050505050905090565b60006003600083815260200190815260200160002060009054906101000a900473ffffffffffffffffffffffffffffffffffffffff169050919050565b6106f381610aa5565b73ffffffffffffffffffffffffffffffffffffffff168273ffffffffffffffffffffffffffffffffffffffff161415610761576040517f08c379a000000000000000000000000000000000000000000000000000000000815260040161075890613013565b60405180910390fd5b61076a33611283565b8061077b575061077a3383610f3d565b5b6107ba576040517f08c379a00000000000000000000000000000000000000000000000000000000081526004016107b1906130d3565b60405180910390fd5b816003600083815260200190815260200160002060006101000a81548173ffffffffffffffffffffffffffffffffffffffff021916908373ffffffffffffffffffffffffffffffffffffffff160217905550808273ffffffffffffffffffffffffffffffffffffffff1661082d83610aa5565b73ffffffffffffffffffffffffffffffffffffffff167f8c5be1e5ebec7d5bd14f71427d1e84f3dd0314c0f7b2291e5b200ac8c7c3b92560405160405180910390a45050565b6000600880549050905090565b61088a33826112bb565b61089357600080fd5b61089e838383611350565b505050565b6108fb8282600067ffffffffffffffff8111156108c3576108c261357d565b5b6040519080825280601f01601f1916602001820160405280156108f55781602001600182028036833780820191505090505b50610979565b5050565b600061090a83610ae2565b821061091557600080fd5b600660008473ffffffffffffffffffffffffffffffffffffffff1673ffffffffffffffffffffffffffffffffffffffff16815260200190815260200160002082815481106109665761096561354e565b5b9060005260206000200154905092915050565b6000801b600d60008060001b815260200190815260200160002081905550505050565b60008060009054906101000a900473ffffffffffffffffffffffffffffffffffffffff1673ffffffffffffffffffffffffffffffffffffffff163373ffffffffffffffffffffffffffffffffffffffff1614610a2d576040517f08c379a0000000000000000000000000000000000000000000000000000000008152600401610a2490613093565b60405180910390fd5b610a3682611374565b610a40838361143a565b6001905092915050565b610a6583838360405180602001604052806000815250610d23565b505050565b6000610a74610873565b8210610a7f57600080fd5b60088281548110610a9357610a9261354e565b5b90600052602060002001549050919050565b60006002600083815260200190815260200160002060009054906101000a900473ffffffffffffffffffffffffffffffffffffffff169050919050565b6000610b2b600460008473ffffffffffffffffffffffffffffffffffffffff1673ffffffffffffffffffffffffffffffffffffffff16815260200190815260200160002061145b565b9050919050565b60008060009054906101000a900473ffffffffffffffffffffffffffffffffffffffff16905090565b606060108054610b6a9061340b565b80601f0160208091040260200160405190810160405280929190818152602001828054610b969061340b565b8015610be35780601f10610bb857610100808354040283529160200191610be3565b820191906000526020600020905b815481529060010190602001808311610bc657829003601f168201915b5050505050905090565b3373ffffffffffffffffffffffffffffffffffffffff168273ffffffffffffffffffffffffffffffffffffffff161415610c2657600080fd5b80600560003373ffffffffffffffffffffffffffffffffffffffff1673ffffffffffffffffffffffffffffffffffffffff16815260200190815260200160002060008473ffffffffffffffffffffffffffffffffffffffff1673ffffffffffffffffffffffffffffffffffffffff16815260200190815260200160002060006101000a81548160ff0219169083151502179055508173ffffffffffffffffffffffffffffffffffffffff163373ffffffffffffffffffffffffffffffffffffffff167f17307eab39ab6107e8899845ad3d59bd9653f200f220920489ca2b5937696c3183604051610d179190612fbb565b60405180910390a35050565b610d2e848484610880565b610d3a84848484611469565b610d4357600080fd5b50505050565b60008054906101000a900473ffffffffffffffffffffffffffffffffffffffff1673ffffffffffffffffffffffffffffffffffffffff163373ffffffffffffffffffffffffffffffffffffffff1614610dd7576040517f08c379a0000000000000000000000000000000000000000000000000000000008152600401610dce90613093565b60405180910390fd5b80600060146101000a81548160ff02191690831515021790555050565b6060610dff82611580565b610e0857600080fd5b601260008381526020019081526020016000208054610e269061340b565b80601f0160208091040260200160405190810160405280929190818152602001828054610e529061340b565b8015610e9f5780601f10610e7457610100808354040283529160200191610e9f565b820191906000526020600020905b815481529060010190602001808311610e8257829003601f168201915b50505050509050919050565b606060118054610eba9061340b565b80601f0160208091040260200160405190810160405280929190818152602001828054610ee69061340b565b8015610f335780601f10610f0857610100808354040283529160200191610f33565b820191906000526020600020905b815481529060010190602001808311610f1657829003601f168201915b5050505050905090565b6000600560008473ffffffffffffffffffffffffffffffffffffffff1673ffffffffffffffffffffffffffffffffffffffff16815260200190815260200160002060008373ffffffffffffffffffffffffffffffffffffffff1673ffffffffffffffffffffffffffffffffffffffff16815260200190815260200160002060009054906101000a900460ff16905092915050565b60008054906101000a900473ffffffffffffffffffffffffffffffffffffffff1673ffffffffffffffffffffffffffffffffffffffff163373ffffffffffffffffffffffffffffffffffffffff161461105f576040517f08c379a000000000000000000000000000000000000000000000000000000000815260040161105690613093565b60405180910390fd5b806000806101000a81548173ffffffffffffffffffffffffffffffffffffffff021916908373ffffffffffffffffffffffffffffffffffffffff1602179055507fcef55b6688c0d2198b4841b7c6a8247f60385b4b5ce83e22506fb3258036379b60008054906101000a900473ffffffffffffffffffffffffffffffffffffffff166040516110ee9190612f54565b60405180910390a150565b6000826000015160000151836000015160200151846020015160000151856020015160200151866040015160000151876040015160200151876040516020016111489796959493929190612ed3565b60405160208183030381529060405280519060200120905092915050565b60016014600083815260200190815260200160002060006101000a81548160ff0219169083151502179055507ffec8a71fa6c8a5b62fc287180a595fa2b01835ec8b6afca9a40cf8371ce1f698816040516111c19190612fd6565b60405180910390a150565b6000601360009054906101000a900473ffffffffffffffffffffffffffffffffffffffff1673ffffffffffffffffffffffffffffffffffffffff166343cd76fc84846040518363ffffffff1660e01b815260040161122b929190613153565b60206040518083038186803b15801561124357600080fd5b505afa158015611257573d6000803e3d6000fd5b505050506040513d601f19601f8201168201806040525081019061127b91906128b6565b905092915050565b60008173ffffffffffffffffffffffffffffffffffffffff163373ffffffffffffffffffffffffffffffffffffffff16149050919050565b6000806112c783610aa5565b90508073ffffffffffffffffffffffffffffffffffffffff168473ffffffffffffffffffffffffffffffffffffffff16148061133657508373ffffffffffffffffffffffffffffffffffffffff1661131e846106ad565b73ffffffffffffffffffffffffffffffffffffffff16145b8061134757506113468185610f3d565b5b91505092915050565b61135b8383836115f2565b6113658382611821565b61136f82826119e9565b505050565b611410601180546113849061340b565b80601f01602080910402602001604051908101604052809291908181526020018280546113b09061340b565b80156113fd5780601f106113d2576101008083540402835291602001916113fd565b820191906000526020600020905b8154815290600101906020018083116113e057829003601f168201915b505050505061140b83611aad565b611c0f565b601260008381526020019081526020016000209080519060200190611436929190612319565b5050565b6114448282611c53565b61144e82826119e9565b61145781611e12565b5050565b600081600001549050919050565b600061148a8473ffffffffffffffffffffffffffffffffffffffff16611e5b565b6114975760019050611578565b60008473ffffffffffffffffffffffffffffffffffffffff1663150b7a02338887876040518563ffffffff1660e01b81526004016114d89493929190612f6f565b602060405180830381600087803b1580156114f257600080fd5b505af1158015611506573d6000803e3d6000fd5b505050506040513d601f19601f8201168201806040525081019061152a91906129f7565b905063150b7a0260e01b7bffffffffffffffffffffffffffffffffffffffffffffffffffffffff1916817bffffffffffffffffffffffffffffffffffffffffffffffffffffffff1916149150505b949350505050565b6000806002600084815260200190815260200160002060009054906101000a900473ffffffffffffffffffffffffffffffffffffffff169050600073ffffffffffffffffffffffffffffffffffffffff168173ffffffffffffffffffffffffffffffffffffffff161415915050919050565b8273ffffffffffffffffffffffffffffffffffffffff1661161282610aa5565b73ffffffffffffffffffffffffffffffffffffffff1614611668576040517f08c379a000000000000000000000000000000000000000000000000000000000815260040161165f90613113565b60405180910390fd5b600073ffffffffffffffffffffffffffffffffffffffff168273ffffffffffffffffffffffffffffffffffffffff1614156116d8576040517f08c379a00000000000000000000000000000000000000000000000000000000081526004016116cf90613073565b60405180910390fd5b816002600083815260200190815260200160002060006101000a81548173ffffffffffffffffffffffffffffffffffffffff021916908373ffffffffffffffffffffffffffffffffffffffff160217905550611771600460008573ffffffffffffffffffffffffffffffffffffffff1673ffffffffffffffffffffffffffffffffffffffff168152602001908152602001600020611e6e565b6117b8600460008473ffffffffffffffffffffffffffffffffffffffff1673ffffffffffffffffffffffffffffffffffffffff168152602001908152602001600020611eca565b6117c181611ee0565b808273ffffffffffffffffffffffffffffffffffffffff168473ffffffffffffffffffffffffffffffffffffffff167fddf252ad1be2c89b69c2b068fc378daa952ba7f163c4a11628f55a4df523b3ef60405160405180910390a4505050565b60006001600660008573ffffffffffffffffffffffffffffffffffffffff1673ffffffffffffffffffffffffffffffffffffffff168152602001908152602001600020805490506118729190613317565b905060006007600084815260200190815260200160002054905081811461196d576000600660008673ffffffffffffffffffffffffffffffffffffffff1673ffffffffffffffffffffffffffffffffffffffff16815260200190815260200160002083815481106118e6576118e561354e565b5b9060005260206000200154905080600660008773ffffffffffffffffffffffffffffffffffffffff1673ffffffffffffffffffffffffffffffffffffffff16815260200190815260200160002083815481106119455761194461354e565b5b9060005260206000200181905550816007600083815260200190815260200160002081905550505b600660008573ffffffffffffffffffffffffffffffffffffffff1673ffffffffffffffffffffffffffffffffffffffff16815260200190815260200160002082815481106119be576119bd61354e565b5b9060005260206000200160009055600760008481526020019081526020016000206000905550505050565b600660008373ffffffffffffffffffffffffffffffffffffffff1673ffffffffffffffffffffffffffffffffffffffff168152602001908152602001600020805490506007600083815260200190815260200160002081905550600660008373ffffffffffffffffffffffffffffffffffffffff1673ffffffffffffffffffffffffffffffffffffffff1681526020019081526020016000208190806001815401808255809150506001900390600052602060002001600090919091909150555050565b60606000821415611af5576040518060400160405280600181526020017f30000000000000000000000000000000000000000000000000000000000000008152509050611c0a565b600082905060005b60008214611b26578080600101915050600a8281611b1e57611b1d6134f0565b5b049150611afd565b60008167ffffffffffffffff811115611b4257611b4161357d565b5b6040519080825280601f01601f191660200182016040528015611b745781602001600182028036833780820191505090505b50905060006001830390505b60008614611c0257600a8681611b9957611b986134f0565b5b0660300160f81b82828060019003935081518110611bba57611bb961354e565b5b60200101907effffffffffffffffffffffffffffffffffffffffffffffffffffffffffffff1916908160001a905350600a8681611bfa57611bf96134f0565b5b049550611b80565b819450505050505b919050565b6060611c4b8383604051806020016040528060008152506040518060200160405280600081525060405180602001604052806000815250611f9e565b905092915050565b60001515611c6082611580565b151514611ca2576040517f08c379a0000000000000000000000000000000000000000000000000000000008152600401611c9990613053565b60405180910390fd5b600073ffffffffffffffffffffffffffffffffffffffff168273ffffffffffffffffffffffffffffffffffffffff161415611d12576040517f08c379a0000000000000000000000000000000000000000000000000000000008152600401611d0990613133565b60405180910390fd5b816002600083815260200190815260200160002060006101000a81548173ffffffffffffffffffffffffffffffffffffffff021916908373ffffffffffffffffffffffffffffffffffffffff160217905550611dab600460008473ffffffffffffffffffffffffffffffffffffffff1673ffffffffffffffffffffffffffffffffffffffff168152602001908152602001600020611eca565b808273ffffffffffffffffffffffffffffffffffffffff16611dcc83610aa5565b73ffffffffffffffffffffffffffffffffffffffff167fddf252ad1be2c89b69c2b068fc378daa952ba7f163c4a11628f55a4df523b3ef60405160405180910390a45050565b6008805490506009600083815260200190815260200160002081905550600881908060018154018082558091505060019003906000526020600020016000909190919091505550565b600080823b905060008111915050919050565b60008160000154905060008111611eba576040517f08c379a0000000000000000000000000000000000000000000000000000000008152600401611eb190613033565b60405180910390fd5b6001810382600001819055505050565b6001816000016000828254019250508190555050565b600073ffffffffffffffffffffffffffffffffffffffff166003600083815260200190815260200160002060009054906101000a900473ffffffffffffffffffffffffffffffffffffffff1673ffffffffffffffffffffffffffffffffffffffff1614611f9b5760006003600083815260200190815260200160002060006101000a81548173ffffffffffffffffffffffffffffffffffffffff021916908373ffffffffffffffffffffffffffffffffffffffff1602179055505b50565b606060008690506000869050600086905060008690506000869050600081518351855187518951611fcf91906132c1565b611fd991906132c1565b611fe391906132c1565b611fed91906132c1565b67ffffffffffffffff8111156120065761200561357d565b5b6040519080825280601f01601f1916602001820160405280156120385781602001600182028036833780820191505090505b5090506000819050600080600090505b88518110156120d0578881815181106120645761206361354e565b5b602001015160f81c60f81b83838061207b9061346e565b94508151811061208e5761208d61354e565b5b60200101907effffffffffffffffffffffffffffffffffffffffffffffffffffffffffffff1916908160001a90535080806120c89061346e565b915050612048565b600090505b875181101561215d578781815181106120f1576120f061354e565b5b602001015160f81c60f81b8383806121089061346e565b94508151811061211b5761211a61354e565b5b60200101907effffffffffffffffffffffffffffffffffffffffffffffffffffffffffffff1916908160001a90535080806121559061346e565b9150506120d5565b600090505b86518110156121ea5786818151811061217e5761217d61354e565b5b602001015160f81c60f81b8383806121959061346e565b9450815181106121a8576121a761354e565b5b60200101907effffffffffffffffffffffffffffffffffffffffffffffffffffffffffffff1916908160001a90535080806121e29061346e565b915050612162565b600090505b85518110156122775785818151811061220b5761220a61354e565b5b602001015160f81c60f81b8383806122229061346e565b9450815181106122355761223461354e565b5b60200101907effffffffffffffffffffffffffffffffffffffffffffffffffffffffffffff1916908160001a905350808061226f9061346e565b9150506121ef565b600090505b8451811015612304578481815181106122985761229761354e565b5b602001015160f81c60f81b8383806122af9061346e565b9450815181106122c2576122c161354e565b5b60200101907effffffffffffffffffffffffffffffffffffffffffffffffffffffffffffff1916908160001a90535080806122fc9061346e565b91505061227c565b82995050505050505050505095945050505050565b8280546123259061340b565b90600052602060002090601f016020900481019282612347576000855561238e565b82601f1061236057805160ff191683800117855561238e565b8280016001018555821561238e579182015b8281111561238d578251825591602001919060010190612372565b5b50905061239b919061239f565b5090565b5b808211156123b85760008160009055506001016123a0565b5090565b60006123cf6123ca846131be565b613199565b905080828560208602820111156123e9576123e86135b6565b5b60005b8581101561241957816123ff88826126b1565b8452602084019350602083019250506001810190506123ec565b5050509392505050565b6000612436612431846131e4565b613199565b905082815260208101848484011115612452576124516135bb565b5b61245d8482856133c9565b509392505050565b600061247861247384613215565b613199565b905082815260208101848484011115612494576124936135bb565b5b61249f8482856133c9565b509392505050565b6000813590506124b6816137c1565b92915050565b600082601f8301126124d1576124d06135ac565b5b60026124de8482856123bc565b91505092915050565b6000813590506124f6816137d8565b92915050565b60008151905061250b816137d8565b92915050565b600081359050612520816137ef565b92915050565b60008135905061253581613806565b92915050565b60008151905061254a81613806565b92915050565b600082601f830112612565576125646135ac565b5b8135612575848260208601612423565b91505092915050565b600082601f830112612593576125926135ac565b5b81356125a3848260208601612465565b91505092915050565b6000604082840312156125c2576125c16135b1565b5b6125cc6040613199565b905060006125dc848285016126b1565b60008301525060206125f0848285016126b1565b60208301525092915050565b600060808284031215612612576126116135b1565b5b61261c6040613199565b9050600061262c848285016124bc565b6000830152506040612640848285016124bc565b60208301525092915050565b60006101008284031215612663576126626135b1565b5b61266d6060613199565b9050600061267d848285016125ac565b6000830152506040612691848285016125fc565b60208301525060c06126a5848285016125ac565b60408301525092915050565b6000813590506126c08161381d565b92915050565b6000602082840312156126dc576126db6135c5565b5b60006126ea848285016124a7565b91505092915050565b6000806040838503121561270a576127096135c5565b5b6000612718858286016124a7565b9250506020612729858286016124a7565b9150509250929050565b60008060006060848603121561274c5761274b6135c5565b5b600061275a868287016124a7565b935050602061276b868287016124a7565b925050604061277c868287016126b1565b9150509250925092565b600080600080608085870312156127a05761279f6135c5565b5b60006127ae878288016124a7565b94505060206127bf878288016124a7565b93505060406127d0878288016126b1565b925050606085013567ffffffffffffffff8111156127f1576127f06135c0565b5b6127fd87828801612550565b91505092959194509250565b600080604083850312156128205761281f6135c5565b5b600061282e858286016124a7565b925050602061283f858286016124e7565b9150509250929050565b600080604083850312156128605761285f6135c5565b5b600061286e858286016124a7565b925050602061287f858286016126b1565b9150509250929050565b60006020828403121561289f5761289e6135c5565b5b60006128ad848285016124e7565b91505092915050565b6000602082840312156128cc576128cb6135c5565b5b60006128da848285016124fc565b91505092915050565b600080604083850312156128fa576128f96135c5565b5b600061290885828601612511565b925050602083013567ffffffffffffffff811115612929576129286135c0565b5b6129358582860161257e565b9150509250929050565b600080600060608486031215612958576129576135c5565b5b600061296686828701612511565b935050602084013567ffffffffffffffff811115612987576129866135c0565b5b6129938682870161257e565b925050604084013567ffffffffffffffff8111156129b4576129b36135c0565b5b6129c086828701612550565b9150509250925092565b6000602082840312156129e0576129df6135c5565b5b60006129ee84828501612526565b91505092915050565b600060208284031215612a0d57612a0c6135c5565b5b6000612a1b8482850161253b565b91505092915050565b6000806000806101808587031215612a3f57612a3e6135c5565b5b6000612a4d8782880161264c565b945050610100612a5f878288016124bc565b935050610140612a71878288016124a7565b925050610160612a83878288016126b1565b91505092959194509250565b600060208284031215612aa557612aa46135c5565b5b6000612ab3848285016126b1565b91505092915050565b6000612ac88383612e8f565b60208301905092915050565b6000612ae08383612ead565b60208301905092915050565b612af58161334b565b82525050565b612b0481613250565b612b0e818461327e565b9250612b1982613246565b8060005b83811015612b4a578151612b318782612abc565b9650612b3c83613271565b925050600181019050612b1d565b505050505050565b612b5b81613250565b612b658184613289565b9250612b7082613246565b8060005b83811015612ba1578151612b888782612abc565b9650612b9383613271565b925050600181019050612b74565b505050505050565b612bb281613250565b612bbc8184613294565b9250612bc782613246565b8060005b83811015612bf8578151612bdf8782612ad4565b9650612bea83613271565b925050600181019050612bcb565b505050505050565b612c098161335d565b82525050565b612c1881613369565b82525050565b6000612c298261325b565b612c33818561329f565b9350612c438185602086016133d8565b612c4c816135ca565b840191505092915050565b6000612c6282613266565b612c6c81856132b0565b9350612c7c8185602086016133d8565b612c85816135ca565b840191505092915050565b6000612c9d6021836132b0565b9150612ca8826135db565b604082019050919050565b6000612cc0601b836132b0565b9150612ccb8261362a565b602082019050919050565b6000612ce36014836132b0565b9150612cee82613653565b602082019050919050565b6000612d06601e836132b0565b9150612d118261367c565b602082019050919050565b6000612d296020836132b0565b9150612d34826136a5565b602082019050919050565b6000612d4c601e836132b0565b9150612d57826136ce565b602082019050919050565b6000612d6f6034836132b0565b9150612d7a826136f7565b604082019050919050565b6000612d92601e836132b0565b9150612d9d82613746565b602082019050919050565b6000612db56020836132b0565b9150612dc08261376f565b602082019050919050565b6000612dd86012836132b0565b9150612de382613798565b602082019050919050565b604082016000820151612e046000850182612e8f565b506020820151612e176020850182612e8f565b50505050565b608082016000820151612e336000850182612afb565b506020820151612e466040850182612afb565b50505050565b61010082016000820151612e636000850182612dee565b506020820151612e766040850182612e1d565b506040820151612e8960c0850182612dee565b50505050565b612e98816133bf565b82525050565b612ea7816133bf565b82525050565b612eb6816133bf565b82525050565b612ecd612ec8826133bf565b6134b7565b82525050565b6000612edf828a612ebc565b602082019150612eef8289612ebc565b602082019150612eff8288612ba9565b604082019150612f0f8287612ba9565b604082019150612f1f8286612ebc565b602082019150612f2f8285612ebc565b602082019150612f3f8284612ba9565b60408201915081905098975050505050505050565b6000602082019050612f696000830184612aec565b92915050565b6000608082019050612f846000830187612aec565b612f916020830186612aec565b612f9e6040830185612e9e565b8181036060830152612fb08184612c1e565b905095945050505050565b6000602082019050612fd06000830184612c00565b92915050565b6000602082019050612feb6000830184612c0f565b92915050565b6000602082019050818103600083015261300b8184612c57565b905092915050565b6000602082019050818103600083015261302c81612c90565b9050919050565b6000602082019050818103600083015261304c81612cb3565b9050919050565b6000602082019050818103600083015261306c81612cd6565b9050919050565b6000602082019050818103600083015261308c81612cf9565b9050919050565b600060208201905081810360008301526130ac81612d1c565b9050919050565b600060208201905081810360008301526130cc81612d3f565b9050919050565b600060208201905081810360008301526130ec81612d62565b9050919050565b6000602082019050818103600083015261310c81612d85565b9050919050565b6000602082019050818103600083015261312c81612da8565b9050919050565b6000602082019050818103600083015261314c81612dcb565b9050919050565b6000610140820190506131696000830185612e4c565b613177610100830184612b52565b9392505050565b60006020820190506131936000830184612e9e565b92915050565b60006131a36131b4565b90506131af828261343d565b919050565b6000604051905090565b600067ffffffffffffffff8211156131d9576131d861357d565b5b602082029050919050565b600067ffffffffffffffff8211156131ff576131fe61357d565b5b613208826135ca565b9050602081019050919050565b600067ffffffffffffffff8211156132305761322f61357d565b5b613239826135ca565b9050602081019050919050565b6000819050919050565b600060029050919050565b600081519050919050565b600081519050919050565b6000602082019050919050565b600081905092915050565b600081905092915050565b600081905092915050565b600082825260208201905092915050565b600082825260208201905092915050565b60006132cc826133bf565b91506132d7836133bf565b9250827fffffffffffffffffffffffffffffffffffffffffffffffffffffffffffffffff0382111561330c5761330b6134c1565b5b828201905092915050565b6000613322826133bf565b915061332d836133bf565b9250828210156133405761333f6134c1565b5b828203905092915050565b60006133568261339f565b9050919050565b60008115159050919050565b6000819050919050565b60007fffffffff0000000000000000000000000000000000000000000000000000000082169050919050565b600073ffffffffffffffffffffffffffffffffffffffff82169050919050565b6000819050919050565b82818337600083830152505050565b60005b838110156133f65780820151818401526020810190506133db565b83811115613405576000848401525b50505050565b6000600282049050600182168061342357607f821691505b602082108114156134375761343661351f565b5b50919050565b613446826135ca565b810181811067ffffffffffffffff821117156134655761346461357d565b5b80604052505050565b6000613479826133bf565b91507fffffffffffffffffffffffffffffffffffffffffffffffffffffffffffffffff8214156134ac576134ab6134c1565b5b600182019050919050565b6000819050919050565b7f4e487b7100000000000000000000000000000000000000000000000000000000600052601160045260246000fd5b7f4e487b7100000000000000000000000000000000000000000000000000000000600052601260045260246000fd5b7f4e487b7100000000000000000000000000000000000000000000000000000000600052602260045260246000fd5b7f4e487b7100000000000000000000000000000000000000000000000000000000600052603260045260246000fd5b7f4e487b7100000000000000000000000000000000000000000000000000000000600052604160045260246000fd5b600080fd5b600080fd5b600080fd5b600080fd5b600080fd5b600080fd5b6000601f19601f8301169050919050565b7f416464726573732063616e6e6f742062652074686520746f6b656e206f776e6560008201527f7200000000000000000000000000000000000000000000000000000000000000602082015250565b7f436f756e7465723a2064656372656d656e74206f766572666c6f770000000000600082015250565b7f546f6b656e20616c726561647920657869737473000000000000000000000000600082015250565b7f4d757374207472616e7366657220746f2076616c696420616464726573730000600082015250565b7f43616c6c6572206973206e6f742074686520636f6e7472616374206f776e6572600082015250565b7f536f6c7574696f6e2068617320616c7265616479206265656e20757365640000600082015250565b7f53656e646572206d757374206265206f776e6572206f72206f70657261746f7260008201527f20697320617070726f76656420666f7220616c6c000000000000000000000000602082015250565b7f536f6c7574696f6e206661696c656420746f2062652076657269666965640000600082015250565b7f46726f6d2061646472657373206d75737420626520746f6b656e206f776e6572600082015250565b7f4164647265737320697320696e76616c69640000000000000000000000000000600082015250565b6137ca8161334b565b81146137d557600080fd5b50565b6137e18161335d565b81146137ec57600080fd5b50565b6137f881613369565b811461380357600080fd5b50565b61380f81613373565b811461381a57600080fd5b50565b613826816133bf565b811461383157600080fd5b5056fea264697066735822122064e55170f6d7397eb0d7c45a904780ff66d7529947ffa23f40b4162fea7ff26c64736f6c6343000807003368747470733a2f2f73332d75732d776573742d322e616d617a6f6e6177732e636f6d2f756461636974792d626c6f636b636861696e2f63617073746f6e652f",
  "immutableReferences": {},
  "source": "/* SPDX-License-Identifier: MIT */\n\npragma solidity ^0.8.7;\n\nimport \"./ERC721Mintable.sol\";\n\ncontract SolnSquareVerifier is ERC721Mintable {\n    ISquareVerifier private squareVerifier;\n\n    mapping(bytes32 => bool) private _usedSolutions;\n\n    event SolutionAdded(bytes32 solutionHash);\n\n    constructor(\n        address verifierAddress,\n        string memory name,\n        string memory symbol\n    ) ERC721Mintable(name, symbol) {\n        squareVerifier = ISquareVerifier(verifierAddress);\n    }\n\n    function _verify(\n        ISquareVerifier.Proof memory proof,\n        uint256[2] memory input\n    ) internal view returns (bool r) {\n        return squareVerifier.verifyTx(proof, input);\n    }\n\n    function _addSolution(bytes32 solutionHash_) internal {\n        _usedSolutions[solutionHash_] = true;\n        emit SolutionAdded(solutionHash_);\n    }\n\n    function _solutionHash(\n        ISquareVerifier.Proof memory proof,\n        uint256[2] memory input\n    ) internal pure returns (bytes32) {\n        return\n            keccak256(\n                abi.encodePacked(\n                    proof.a.X,\n                    proof.a.Y,\n                    proof.b.X,\n                    proof.b.Y,\n                    proof.c.X,\n                    proof.c.Y,\n                    input\n                )\n            );\n    }\n\n    function verifiedMint(\n        ISquareVerifier.Proof memory proof,\n        uint256[2] memory inputs,\n        address to,\n        uint256 tokenId\n    ) external returns (bool) {\n        bytes32 solutionHash = _solutionHash(proof, inputs);\n        require(\n            _usedSolutions[solutionHash] == false,\n            \"Solution has already been used\"\n        );\n        _addSolution(solutionHash);\n        require(\n            _verify(proof, inputs) == true,\n            \"Solution failed to be verified\"\n        );\n\n        return super.mint(to, tokenId);\n    }\n}\n\ninterface ISquareVerifier {\n    struct G1Point {\n        uint256 X;\n        uint256 Y;\n    }\n\n    struct G2Point {\n        uint256[2] X;\n        uint256[2] Y;\n    }\n\n    struct Proof {\n        G1Point a;\n        G2Point b;\n        G1Point c;\n    }\n\n    function verifyTx(Proof memory proof, uint256[2] memory input)\n        external\n        view\n        returns (bool r);\n}\n",
  "sourcePath": "/home/icole/Workspace/blockchain_nanodegree/capstone/eth-contracts/contracts/SolnSquareVerifier.sol",
  "compiler": {
    "name": "solc",
    "version": "0.8.7+commit.e28d00a7.Emscripten.clang"
  },
  "schemaVersion": "3.4.3",
  "updatedAt": "2021-10-18T01:28:13.606Z",
  "networkType": "ethereum",
  "devdoc": {
    "kind": "dev",
    "methods": {
      "__callback(bytes32,string)": {
        "details": "The following `__callback` functions are just placeholders ideally      meant to be defined in child contract when proofs are used.      The function bodies simply silence compiler warnings."
      },
      "isApprovedForAll(address,address)": {
        "details": "Tells whether an operator is approved by a given owner",
        "params": {
          "operator": "operator address which you want to query the approval of",
          "owner": "owner address which you want to query the approval of"
        },
        "returns": {
          "_0": "bool whether the given operator is approved by the given owner"
        }
      },
      "setApprovalForAll(address,bool)": {
        "details": "Sets or unsets the approval of a given operator An operator is allowed to transfer all tokens of the sender on their behalf",
        "params": {
          "approved": "representing the status of the approval to be set",
          "to": "operator address to set the approval"
        }
      },
      "supportsInterface(bytes4)": {
        "details": "implement supportsInterface(bytes4) using a lookup table"
      },
      "tokenByIndex(uint256)": {
        "details": "Gets the token ID at a given index of all the tokens in this contract Reverts if the index is greater or equal to the total number of tokens",
        "params": {
          "index": "uint256 representing the index to be accessed of the tokens list"
        },
        "returns": {
          "_0": "uint256 token ID at the given index of the tokens list"
        }
      },
      "tokenOfOwnerByIndex(address,uint256)": {
        "details": "Gets the token ID at a given index of the tokens list of the requested owner",
        "params": {
          "index": "uint256 representing the index to be accessed of the requested tokens list",
          "owner": "address owning the tokens list to be accessed"
        },
        "returns": {
          "_0": "uint256 token ID at the given index of the tokens list owned by the requested address"
        }
      },
      "totalSupply()": {
        "details": "Gets the total amount of tokens stored by the contract",
        "returns": {
          "_0": "uint256 representing the total amount of tokens"
        }
      }
    },
    "version": 1
  },
  "userdoc": {
    "kind": "user",
    "methods": {},
    "version": 1
  }
}